{
  "contractName": "AratroCrop",
  "abi": [
    {
      "inputs": [],
      "stateMutability": "nonpayable",
      "type": "constructor"
    },
    {
      "anonymous": false,
      "inputs": [
        {
          "indexed": true,
          "internalType": "uint256",
          "name": "id",
          "type": "uint256"
        },
        {
          "indexed": true,
          "internalType": "address",
          "name": "rationShop",
          "type": "address"
        },
        {
          "indexed": true,
          "internalType": "address",
          "name": "warehouse",
          "type": "address"
        },
        {
          "indexed": false,
          "internalType": "string",
          "name": "stockType",
          "type": "string"
        }
      ],
      "name": "RationStockRequestCreated",
      "type": "event"
    },
    {
      "anonymous": false,
      "inputs": [
        {
          "indexed": true,
          "internalType": "uint256",
          "name": "id",
          "type": "uint256"
        },
        {
          "indexed": false,
          "internalType": "enum AratroCrop.StockStatus",
          "name": "status",
          "type": "uint8"
        }
      ],
      "name": "RationStockRequestStatusUpdated",
      "type": "event"
    },
    {
      "anonymous": false,
      "inputs": [
        {
          "indexed": true,
          "internalType": "uint256",
          "name": "id",
          "type": "uint256"
        },
        {
          "indexed": false,
          "internalType": "string",
          "name": "cropType",
          "type": "string"
        },
        {
          "indexed": false,
          "internalType": "uint256",
          "name": "quantity",
          "type": "uint256"
        },
        {
          "indexed": true,
          "internalType": "address",
          "name": "farmer",
          "type": "address"
        },
        {
          "indexed": true,
          "internalType": "address",
          "name": "warehouse",
          "type": "address"
        }
      ],
      "name": "StockCreated",
      "type": "event"
    },
    {
      "anonymous": false,
      "inputs": [
        {
          "indexed": true,
          "internalType": "uint256",
          "name": "id",
          "type": "uint256"
        },
        {
          "indexed": true,
          "internalType": "address",
          "name": "from",
          "type": "address"
        },
        {
          "indexed": true,
          "internalType": "address",
          "name": "to",
          "type": "address"
        },
        {
          "indexed": false,
          "internalType": "uint256",
          "name": "stockId",
          "type": "uint256"
        }
      ],
      "name": "StockRequestCreated",
      "type": "event"
    },
    {
      "anonymous": false,
      "inputs": [
        {
          "indexed": true,
          "internalType": "uint256",
          "name": "id",
          "type": "uint256"
        },
        {
          "indexed": false,
          "internalType": "enum AratroCrop.StockStatus",
          "name": "status",
          "type": "uint8"
        }
      ],
      "name": "StockRequestStatusUpdated",
      "type": "event"
    },
    {
      "anonymous": false,
      "inputs": [
        {
          "indexed": true,
          "internalType": "uint256",
          "name": "id",
          "type": "uint256"
        },
        {
          "indexed": false,
          "internalType": "enum AratroCrop.StockStatus",
          "name": "status",
          "type": "uint8"
        }
      ],
      "name": "StockStatusUpdated",
      "type": "event"
    },
    {
      "anonymous": false,
      "inputs": [
        {
          "indexed": true,
          "internalType": "uint256",
          "name": "id",
          "type": "uint256"
        },
        {
          "indexed": true,
          "internalType": "address",
          "name": "warehouse",
          "type": "address"
        },
        {
          "indexed": false,
          "internalType": "string",
          "name": "stockType",
          "type": "string"
        },
        {
          "indexed": false,
          "internalType": "uint256",
          "name": "quantity",
          "type": "uint256"
        }
      ],
      "name": "WarehouseRequestCreated",
      "type": "event"
    },
    {
      "inputs": [],
      "name": "owner",
      "outputs": [
        {
          "internalType": "address",
          "name": "",
          "type": "address"
        }
      ],
      "stateMutability": "view",
      "type": "function"
    },
    {
      "inputs": [
        {
          "internalType": "uint256",
          "name": "",
          "type": "uint256"
        }
      ],
      "name": "rationStockRequests",
      "outputs": [
        {
          "internalType": "uint256",
          "name": "id",
          "type": "uint256"
        },
        {
          "internalType": "address",
          "name": "rationShop",
          "type": "address"
        },
        {
          "internalType": "address",
          "name": "warehouse",
          "type": "address"
        },
        {
          "internalType": "string",
          "name": "stockType",
          "type": "string"
        },
        {
          "internalType": "uint256",
          "name": "quantity",
          "type": "uint256"
        },
        {
          "internalType": "enum AratroCrop.StockStatus",
          "name": "status",
          "type": "uint8"
        },
        {
          "internalType": "uint256",
          "name": "requestDate",
          "type": "uint256"
        },
        {
          "internalType": "uint256",
          "name": "processedDate",
          "type": "uint256"
        },
        {
          "internalType": "string",
          "name": "notes",
          "type": "string"
        },
        {
          "internalType": "string",
          "name": "adminNotes",
          "type": "string"
        },
        {
          "internalType": "uint256",
          "name": "createdAt",
          "type": "uint256"
        },
        {
          "internalType": "uint256",
          "name": "updatedAt",
          "type": "uint256"
        }
      ],
      "stateMutability": "view",
      "type": "function"
    },
    {
      "inputs": [
        {
          "internalType": "uint256",
          "name": "",
          "type": "uint256"
        }
      ],
      "name": "stockRequests",
      "outputs": [
        {
          "internalType": "uint256",
          "name": "id",
          "type": "uint256"
        },
        {
          "internalType": "address",
          "name": "from",
          "type": "address"
        },
        {
          "internalType": "address",
          "name": "to",
          "type": "address"
        },
        {
          "internalType": "uint256",
          "name": "stockId",
          "type": "uint256"
        },
        {
          "internalType": "uint256",
          "name": "requestDate",
          "type": "uint256"
        },
        {
          "internalType": "enum AratroCrop.StockStatus",
          "name": "status",
          "type": "uint8"
        },
        {
          "internalType": "uint256",
          "name": "createdAt",
          "type": "uint256"
        },
        {
          "internalType": "uint256",
          "name": "updatedAt",
          "type": "uint256"
        }
      ],
      "stateMutability": "view",
      "type": "function"
    },
    {
      "inputs": [
        {
          "internalType": "uint256",
          "name": "",
          "type": "uint256"
        }
      ],
      "name": "stocks",
      "outputs": [
        {
          "internalType": "uint256",
          "name": "id",
          "type": "uint256"
        },
        {
          "internalType": "string",
          "name": "cropType",
          "type": "string"
        },
        {
          "internalType": "uint256",
          "name": "quantity",
          "type": "uint256"
        },
        {
          "internalType": "uint256",
          "name": "requestedQuantity",
          "type": "uint256"
        },
        {
          "internalType": "enum AratroCrop.StockStatus",
          "name": "status",
          "type": "uint8"
        },
        {
          "internalType": "address",
          "name": "farmer",
          "type": "address"
        },
        {
          "internalType": "address",
          "name": "warehouse",
          "type": "address"
        },
        {
          "internalType": "uint256",
          "name": "timestamp",
          "type": "uint256"
        },
        {
          "internalType": "uint256",
          "name": "updatedAt",
          "type": "uint256"
        }
      ],
      "stateMutability": "view",
      "type": "function"
    },
    {
      "inputs": [
        {
          "internalType": "uint256",
          "name": "",
          "type": "uint256"
        }
      ],
      "name": "warehouseRequests",
      "outputs": [
        {
          "internalType": "uint256",
          "name": "id",
          "type": "uint256"
        },
        {
          "internalType": "address",
          "name": "warehouse",
          "type": "address"
        },
        {
          "internalType": "string",
          "name": "stockType",
          "type": "string"
        },
        {
          "internalType": "uint256",
          "name": "quantity",
          "type": "uint256"
        },
        {
          "internalType": "uint256",
          "name": "pricePerTon",
          "type": "uint256"
        },
        {
          "internalType": "string",
          "name": "description",
          "type": "string"
        },
        {
          "internalType": "string",
          "name": "status",
          "type": "string"
        },
        {
          "internalType": "uint256",
          "name": "datePosted",
          "type": "uint256"
        },
        {
          "internalType": "uint256",
          "name": "expiryDate",
          "type": "uint256"
        }
      ],
      "stateMutability": "view",
      "type": "function"
    },
    {
      "inputs": [
        {
          "internalType": "string",
          "name": "_cropType",
          "type": "string"
        },
        {
          "internalType": "uint256",
          "name": "_quantity",
          "type": "uint256"
        },
        {
          "internalType": "uint256",
          "name": "_requestedQuantity",
          "type": "uint256"
        },
        {
          "internalType": "address",
          "name": "_farmer",
          "type": "address"
        },
        {
          "internalType": "address",
          "name": "_warehouse",
          "type": "address"
        }
      ],
      "name": "createStock",
      "outputs": [
        {
          "internalType": "uint256",
          "name": "",
          "type": "uint256"
        }
      ],
      "stateMutability": "nonpayable",
      "type": "function"
    },
    {
      "inputs": [
        {
          "internalType": "uint256",
          "name": "_stockId",
          "type": "uint256"
        },
        {
          "internalType": "enum AratroCrop.StockStatus",
          "name": "_status",
          "type": "uint8"
        }
      ],
      "name": "updateStockStatus",
      "outputs": [],
      "stateMutability": "nonpayable",
      "type": "function"
    },
    {
      "inputs": [
        {
          "internalType": "address",
          "name": "_from",
          "type": "address"
        },
        {
          "internalType": "address",
          "name": "_to",
          "type": "address"
        },
        {
          "internalType": "uint256",
          "name": "_stockId",
          "type": "uint256"
        }
      ],
      "name": "createStockRequest",
      "outputs": [
        {
          "internalType": "uint256",
          "name": "",
          "type": "uint256"
        }
      ],
      "stateMutability": "nonpayable",
      "type": "function"
    },
    {
      "inputs": [
        {
          "internalType": "uint256",
          "name": "_requestId",
          "type": "uint256"
        },
        {
          "internalType": "enum AratroCrop.StockStatus",
          "name": "_status",
          "type": "uint8"
        }
      ],
      "name": "updateStockRequestStatus",
      "outputs": [],
      "stateMutability": "nonpayable",
      "type": "function"
    },
    {
      "inputs": [
        {
          "internalType": "address",
          "name": "_warehouse",
          "type": "address"
        },
        {
          "internalType": "string",
          "name": "_stockType",
          "type": "string"
        },
        {
          "internalType": "uint256",
          "name": "_quantity",
          "type": "uint256"
        },
        {
          "internalType": "uint256",
          "name": "_pricePerTon",
          "type": "uint256"
        },
        {
          "internalType": "string",
          "name": "_description",
          "type": "string"
        },
        {
          "internalType": "uint256",
          "name": "_expiryDate",
          "type": "uint256"
        }
      ],
      "name": "createWarehouseRequest",
      "outputs": [
        {
          "internalType": "uint256",
          "name": "",
          "type": "uint256"
        }
      ],
      "stateMutability": "nonpayable",
      "type": "function"
    },
    {
      "inputs": [
        {
          "internalType": "address",
          "name": "_rationShop",
          "type": "address"
        },
        {
          "internalType": "address",
          "name": "_warehouse",
          "type": "address"
        },
        {
          "internalType": "string",
          "name": "_stockType",
          "type": "string"
        },
        {
          "internalType": "uint256",
          "name": "_quantity",
          "type": "uint256"
        },
        {
          "internalType": "string",
          "name": "_notes",
          "type": "string"
        }
      ],
      "name": "createRationStockRequest",
      "outputs": [
        {
          "internalType": "uint256",
          "name": "",
          "type": "uint256"
        }
      ],
      "stateMutability": "nonpayable",
      "type": "function"
    },
    {
      "inputs": [
        {
          "internalType": "uint256",
          "name": "_requestId",
          "type": "uint256"
        },
        {
          "internalType": "enum AratroCrop.StockStatus",
          "name": "_status",
          "type": "uint8"
        },
        {
          "internalType": "string",
          "name": "_adminNotes",
          "type": "string"
        }
      ],
      "name": "updateRationStockRequestStatus",
      "outputs": [],
      "stateMutability": "nonpayable",
      "type": "function"
    },
    {
      "inputs": [
        {
          "internalType": "uint256",
          "name": "_stockId",
          "type": "uint256"
        }
      ],
      "name": "getStock",
      "outputs": [
        {
          "internalType": "uint256",
          "name": "id",
          "type": "uint256"
        },
        {
          "internalType": "string",
          "name": "cropType",
          "type": "string"
        },
        {
          "internalType": "uint256",
          "name": "quantity",
          "type": "uint256"
        },
        {
          "internalType": "uint256",
          "name": "requestedQuantity",
          "type": "uint256"
        },
        {
          "internalType": "enum AratroCrop.StockStatus",
          "name": "status",
          "type": "uint8"
        },
        {
          "internalType": "address",
          "name": "farmer",
          "type": "address"
        },
        {
          "internalType": "address",
          "name": "warehouse",
          "type": "address"
        },
        {
          "internalType": "uint256",
          "name": "timestamp",
          "type": "uint256"
        },
        {
          "internalType": "uint256",
          "name": "updatedAt",
          "type": "uint256"
        }
      ],
      "stateMutability": "view",
      "type": "function"
    },
    {
      "inputs": [
        {
          "internalType": "uint256",
          "name": "_requestId",
          "type": "uint256"
        }
      ],
      "name": "getStockRequest",
      "outputs": [
        {
          "internalType": "uint256",
          "name": "id",
          "type": "uint256"
        },
        {
          "internalType": "address",
          "name": "from",
          "type": "address"
        },
        {
          "internalType": "address",
          "name": "to",
          "type": "address"
        },
        {
          "internalType": "uint256",
          "name": "stockId",
          "type": "uint256"
        },
        {
          "internalType": "uint256",
          "name": "requestDate",
          "type": "uint256"
        },
        {
          "internalType": "enum AratroCrop.StockStatus",
          "name": "status",
          "type": "uint8"
        },
        {
          "internalType": "uint256",
          "name": "createdAt",
          "type": "uint256"
        },
        {
          "internalType": "uint256",
          "name": "updatedAt",
          "type": "uint256"
        }
      ],
      "stateMutability": "view",
      "type": "function"
    },
    {
      "inputs": [],
      "name": "getTotalStocks",
      "outputs": [
        {
          "internalType": "uint256",
          "name": "",
          "type": "uint256"
        }
      ],
      "stateMutability": "view",
      "type": "function"
    },
    {
      "inputs": [],
      "name": "getTotalStockRequests",
      "outputs": [
        {
          "internalType": "uint256",
          "name": "",
          "type": "uint256"
        }
      ],
      "stateMutability": "view",
      "type": "function"
    },
    {
      "inputs": [],
      "name": "getTotalWarehouseRequests",
      "outputs": [
        {
          "internalType": "uint256",
          "name": "",
          "type": "uint256"
        }
      ],
      "stateMutability": "view",
      "type": "function"
    },
    {
      "inputs": [],
      "name": "getTotalRationStockRequests",
      "outputs": [
        {
          "internalType": "uint256",
          "name": "",
          "type": "uint256"
        }
      ],
      "stateMutability": "view",
      "type": "function"
    }
  ],
  "bytecode": "0x608060405234801562000010575f80fd5b505f73ffffffffffffffffffffffffffffffffffffffff163373ffffffffffffffffffffffffffffffffffffffff160362000082576040517f08c379a0000000000000000000000000000000000000000000000000000000008152600401620000799062000142565b60405180910390fd5b3360085f6101000a81548173ffffffffffffffffffffffffffffffffffffffff021916908373ffffffffffffffffffffffffffffffffffffffff1602179055505f6004819055505f6005819055505f6006819055505f60078190555062000162565b5f82825260208201905092915050565b7f496e76616c6964206465706c6f796572206164647265737300000000000000005f82015250565b5f6200012a601883620000e4565b91506200013782620000f4565b602082019050919050565b5f6020820190508181035f8301526200015b816200011c565b9050919050565b61260880620001705f395ff3fe608060405234801561000f575f80fd5b5060043610610114575f3560e01c80637d1f1572116100a05780639cce2d4f1161006f5780639cce2d4f14610354578063a87383c314610372578063c4f30b98146103a2578063d15e912c146103be578063dfee133d146103f557610114565b80637d1f1572146102ba5780638da5cb5b146102d657806390219906146102f457806397c8189a1461032457610114565b80632aecdfd7116100e75780632aecdfd7146101e05780632f3a4b28146101fe5780633ab7d09a1461021a57806350c660f514610252578063710c2ce41461028257610114565b806301235b4e1461011857806316a630b81461014f5780631d1fe2201461016d578063226b876c146101a8575b5f80fd5b610132600480360381019061012d9190611837565b610413565b604051610146989796959493929190611923565b60405180910390f35b610157610501565b604051610164919061199f565b60405180910390f35b61018760048036038101906101829190611837565b61050a565b60405161019f9c9b9a99989796959493929190611a42565b60405180910390f35b6101c260048036038101906101bd9190611837565b610742565b6040516101d799989796959493929190611b0f565b60405180910390f35b6101e861085c565b6040516101f5919061199f565b60405180910390f35b61021860048036038101906102139190611cf0565b610865565b005b610234600480360381019061022f9190611837565b61094b565b60405161024999989796959493929190611b0f565b60405180910390f35b61026c60048036038101906102679190611d86565b610acd565b604051610279919061199f565b60405180910390f35b61029c60048036038101906102979190611837565b610d4b565b6040516102b199989796959493929190611e35565b60405180910390f35b6102d460048036038101906102cf9190611ed5565b610f46565b005b6102de61101e565b6040516102eb9190611f13565b60405180910390f35b61030e60048036038101906103099190611f2c565b611043565b60405161031b919061199f565b60405180910390f35b61033e60048036038101906103399190611fed565b611218565b60405161034b919061199f565b60405180910390f35b61035c611463565b604051610369919061199f565b60405180910390f35b61038c6004803603810190610387919061203d565b61146c565b604051610399919061199f565b60405180910390f35b6103bc60048036038101906103b79190611ed5565b611693565b005b6103d860048036038101906103d39190611837565b61175c565b6040516103ec989796959493929190611923565b60405180910390f35b6103fd6117ea565b60405161040a919061199f565b60405180910390f35b5f805f805f805f80600554891115610460576040517f08c379a00000000000000000000000000000000000000000000000000000000081526004016104579061211a565b60405180910390fd5b5f60015f8b81526020019081526020015f209050805f0154816001015f9054906101000a900473ffffffffffffffffffffffffffffffffffffffff16826002015f9054906101000a900473ffffffffffffffffffffffffffffffffffffffff1683600301548460040154856005015f9054906101000a900460ff16866006015487600701549850985098509850985098509850985050919395975091939597565b5f600454905090565b6003602052805f5260405f205f91509050805f015490806001015f9054906101000a900473ffffffffffffffffffffffffffffffffffffffff1690806002015f9054906101000a900473ffffffffffffffffffffffffffffffffffffffff169080600301805461057990612165565b80601f01602080910402602001604051908101604052809291908181526020018280546105a590612165565b80156105f05780601f106105c7576101008083540402835291602001916105f0565b820191905f5260205f20905b8154815290600101906020018083116105d357829003601f168201915b505050505090806004015490806005015f9054906101000a900460ff169080600601549080600701549080600801805461062990612165565b80601f016020809104026020016040519081016040528092919081815260200182805461065590612165565b80156106a05780601f10610677576101008083540402835291602001916106a0565b820191905f5260205f20905b81548152906001019060200180831161068357829003601f168201915b5050505050908060090180546106b590612165565b80601f01602080910402602001604051908101604052809291908181526020018280546106e190612165565b801561072c5780601f106107035761010080835404028352916020019161072c565b820191905f5260205f20905b81548152906001019060200180831161070f57829003601f168201915b50505050509080600a01549080600b015490508c565b5f602052805f5260405f205f91509050805f01549080600101805461076690612165565b80601f016020809104026020016040519081016040528092919081815260200182805461079290612165565b80156107dd5780601f106107b4576101008083540402835291602001916107dd565b820191905f5260205f20905b8154815290600101906020018083116107c057829003601f168201915b505050505090806002015490806003015490806004015f9054906101000a900460ff16908060040160019054906101000a900473ffffffffffffffffffffffffffffffffffffffff1690806005015f9054906101000a900473ffffffffffffffffffffffffffffffffffffffff16908060060154908060070154905089565b5f600554905090565b6007548311156108aa576040517f08c379a00000000000000000000000000000000000000000000000000000000081526004016108a190612205565b60405180910390fd5b5f60035f8581526020019081526020015f20905082816005015f6101000a81548160ff021916908360038111156108e4576108e36118b0565b5b0217905550818160090190816108fa91906123c0565b504281600701819055504281600b0181905550837f2d11414b1846b59198c51c84f8314e819b91b36ddae06f08c68bca72891a46898460405161093d919061248f565b60405180910390a250505050565b5f60605f805f805f805f6004548a111561099a576040517f08c379a0000000000000000000000000000000000000000000000000000000008152600401610991906124f2565b60405180910390fd5b5f805f8c81526020019081526020015f209050805f01548160010182600201548360030154846004015f9054906101000a900460ff168560040160019054906101000a900473ffffffffffffffffffffffffffffffffffffffff16866005015f9054906101000a900473ffffffffffffffffffffffffffffffffffffffff1687600601548860070154878054610a2f90612165565b80601f0160208091040260200160405190810160405280929190818152602001828054610a5b90612165565b8015610aa65780601f10610a7d57610100808354040283529160200191610aa6565b820191905f5260205f20905b815481529060010190602001808311610a8957829003601f168201915b50505050509750995099509950995099509950995099509950509193959799909294969850565b5f60075f815480929190610ae09061253d565b91905055505f60075490506040518061018001604052808281526020018873ffffffffffffffffffffffffffffffffffffffff1681526020018773ffffffffffffffffffffffffffffffffffffffff1681526020018681526020018581526020015f6003811115610b5457610b536118b0565b5b81526020014281526020015f815260200184815260200160405180602001604052805f81525081526020014281526020014281525060035f8381526020019081526020015f205f820151815f01556020820151816001015f6101000a81548173ffffffffffffffffffffffffffffffffffffffff021916908373ffffffffffffffffffffffffffffffffffffffff1602179055506040820151816002015f6101000a81548173ffffffffffffffffffffffffffffffffffffffff021916908373ffffffffffffffffffffffffffffffffffffffff1602179055506060820151816003019081610c4391906123c0565b506080820151816004015560a0820151816005015f6101000a81548160ff02191690836003811115610c7857610c776118b0565b5b021790555060c0820151816006015560e08201518160070155610100820151816008019081610ca791906123c0565b50610120820151816009019081610cbe91906123c0565b5061014082015181600a015561016082015181600b01559050508573ffffffffffffffffffffffffffffffffffffffff168773ffffffffffffffffffffffffffffffffffffffff16827fa03946bf46b19bfee9b58854ca56f53e13d3344ffc2d61378daf40145a487a3a88604051610d369190612584565b60405180910390a48091505095945050505050565b6002602052805f5260405f205f91509050805f015490806001015f9054906101000a900473ffffffffffffffffffffffffffffffffffffffff1690806002018054610d9590612165565b80601f0160208091040260200160405190810160405280929190818152602001828054610dc190612165565b8015610e0c5780601f10610de357610100808354040283529160200191610e0c565b820191905f5260205f20905b815481529060010190602001808311610def57829003601f168201915b505050505090806003015490806004015490806005018054610e2d90612165565b80601f0160208091040260200160405190810160405280929190818152602001828054610e5990612165565b8015610ea45780601f10610e7b57610100808354040283529160200191610ea4565b820191905f5260205f20905b815481529060010190602001808311610e8757829003601f168201915b505050505090806006018054610eb990612165565b80601f0160208091040260200160405190810160405280929190818152602001828054610ee590612165565b8015610f305780601f10610f0757610100808354040283529160200191610f30565b820191905f5260205f20905b815481529060010190602001808311610f1357829003601f168201915b5050505050908060070154908060080154905089565b600554821115610f8b576040517f08c379a0000000000000000000000000000000000000000000000000000000008152600401610f829061211a565b60405180910390fd5b5f60015f8481526020019081526020015f20905081816005015f6101000a81548160ff02191690836003811115610fc557610fc46118b0565b5b0217905550428160070181905550827f97458688f2b84991f639e02e4fe250afb4f5d96aa20521ba905af0ee7fb4c69183604051611003919061248f565b60405180910390a2611019816003015483611693565b505050565b60085f9054906101000a900473ffffffffffffffffffffffffffffffffffffffff1681565b5f60065f8154809291906110569061253d565b91905055505f60065490506040518061012001604052808281526020018973ffffffffffffffffffffffffffffffffffffffff1681526020018881526020018781526020018681526020018581526020016040518060400160405280600481526020017f6f70656e0000000000000000000000000000000000000000000000000000000081525081526020014281526020018481525060025f8381526020019081526020015f205f820151815f01556020820151816001015f6101000a81548173ffffffffffffffffffffffffffffffffffffffff021916908373ffffffffffffffffffffffffffffffffffffffff160217905550604082015181600201908161116091906123c0565b50606082015181600301556080820151816004015560a082015181600501908161118a91906123c0565b5060c08201518160060190816111a091906123c0565b5060e0820151816007015561010082015181600801559050508773ffffffffffffffffffffffffffffffffffffffff16817f9c0eb8c692463a3324e237766335c2defdf838c5cf649317fe0dca43e6f63de889896040516112029291906125a4565b60405180910390a3809150509695505050505050565b5f60045482111561125e576040517f08c379a0000000000000000000000000000000000000000000000000000000008152600401611255906124f2565b60405180910390fd5b60055f8154809291906112709061253d565b91905055505f60055490506040518061010001604052808281526020018673ffffffffffffffffffffffffffffffffffffffff1681526020018573ffffffffffffffffffffffffffffffffffffffff1681526020018481526020014281526020015f60038111156112e4576112e36118b0565b5b81526020014281526020014281525060015f8381526020019081526020015f205f820151815f01556020820151816001015f6101000a81548173ffffffffffffffffffffffffffffffffffffffff021916908373ffffffffffffffffffffffffffffffffffffffff1602179055506040820151816002015f6101000a81548173ffffffffffffffffffffffffffffffffffffffff021916908373ffffffffffffffffffffffffffffffffffffffff160217905550606082015181600301556080820151816004015560a0820151816005015f6101000a81548160ff021916908360038111156113d6576113d56118b0565b5b021790555060c0820151816006015560e082015181600701559050508373ffffffffffffffffffffffffffffffffffffffff168573ffffffffffffffffffffffffffffffffffffffff16827f2019ad927eaf800fcaf4f41a28cebb976adf07ebdd4c24177f94acc04d5b6dfc86604051611450919061199f565b60405180910390a4809150509392505050565b5f600654905090565b5f60045f81548092919061147f9061253d565b91905055505f60045490506040518061012001604052808281526020018881526020018781526020018681526020015f60038111156114c1576114c06118b0565b5b81526020018573ffffffffffffffffffffffffffffffffffffffff1681526020018473ffffffffffffffffffffffffffffffffffffffff168152602001428152602001428152505f808381526020019081526020015f205f820151815f0155602082015181600101908161153591906123c0565b5060408201518160020155606082015181600301556080820151816004015f6101000a81548160ff02191690836003811115611574576115736118b0565b5b021790555060a08201518160040160016101000a81548173ffffffffffffffffffffffffffffffffffffffff021916908373ffffffffffffffffffffffffffffffffffffffff16021790555060c0820151816005015f6101000a81548173ffffffffffffffffffffffffffffffffffffffff021916908373ffffffffffffffffffffffffffffffffffffffff16021790555060e0820151816006015561010082015181600701559050508273ffffffffffffffffffffffffffffffffffffffff168473ffffffffffffffffffffffffffffffffffffffff16827f9d61554b667f5e15e9b618b235ae3f323463a933063ebb31e80c12fe4048b4fb8a8a60405161167e9291906125a4565b60405180910390a48091505095945050505050565b6004548211156116d8576040517f08c379a00000000000000000000000000000000000000000000000000000000081526004016116cf906124f2565b60405180910390fd5b5f805f8481526020019081526020015f20905081816004015f6101000a81548160ff02191690836003811115611711576117106118b0565b5b0217905550428160070181905550827fae014cd7d84e36c02f0a33529b4554c9c5a2d72e5ebfcde562be25cba047bd1a8360405161174f919061248f565b60405180910390a2505050565b6001602052805f5260405f205f91509050805f015490806001015f9054906101000a900473ffffffffffffffffffffffffffffffffffffffff1690806002015f9054906101000a900473ffffffffffffffffffffffffffffffffffffffff1690806003015490806004015490806005015f9054906101000a900460ff16908060060154908060070154905088565b5f600754905090565b5f604051905090565b5f80fd5b5f80fd5b5f819050919050565b61181681611804565b8114611820575f80fd5b50565b5f813590506118318161180d565b92915050565b5f6020828403121561184c5761184b6117fc565b5b5f61185984828501611823565b91505092915050565b61186b81611804565b82525050565b5f73ffffffffffffffffffffffffffffffffffffffff82169050919050565b5f61189a82611871565b9050919050565b6118aa81611890565b82525050565b7f4e487b71000000000000000000000000000000000000000000000000000000005f52602160045260245ffd5b600481106118ee576118ed6118b0565b5b50565b5f8190506118fe826118dd565b919050565b5f61190d826118f1565b9050919050565b61191d81611903565b82525050565b5f610100820190506119375f83018b611862565b611944602083018a6118a1565b61195160408301896118a1565b61195e6060830188611862565b61196b6080830187611862565b61197860a0830186611914565b61198560c0830185611862565b61199260e0830184611862565b9998505050505050505050565b5f6020820190506119b25f830184611862565b92915050565b5f81519050919050565b5f82825260208201905092915050565b5f5b838110156119ef5780820151818401526020810190506119d4565b5f8484015250505050565b5f601f19601f8301169050919050565b5f611a14826119b8565b611a1e81856119c2565b9350611a2e8185602086016119d2565b611a37816119fa565b840191505092915050565b5f61018082019050611a565f83018f611862565b611a63602083018e6118a1565b611a70604083018d6118a1565b8181036060830152611a82818c611a0a565b9050611a91608083018b611862565b611a9e60a083018a611914565b611aab60c0830189611862565b611ab860e0830188611862565b818103610100830152611acb8187611a0a565b9050818103610120830152611ae08186611a0a565b9050611af0610140830185611862565b611afe610160830184611862565b9d9c50505050505050505050505050565b5f61012082019050611b235f83018c611862565b8181036020830152611b35818b611a0a565b9050611b44604083018a611862565b611b516060830189611862565b611b5e6080830188611914565b611b6b60a08301876118a1565b611b7860c08301866118a1565b611b8560e0830185611862565b611b93610100830184611862565b9a9950505050505050505050565b60048110611bad575f80fd5b50565b5f81359050611bbe81611ba1565b92915050565b5f80fd5b5f80fd5b7f4e487b71000000000000000000000000000000000000000000000000000000005f52604160045260245ffd5b611c02826119fa565b810181811067ffffffffffffffff82111715611c2157611c20611bcc565b5b80604052505050565b5f611c336117f3565b9050611c3f8282611bf9565b919050565b5f67ffffffffffffffff821115611c5e57611c5d611bcc565b5b611c67826119fa565b9050602081019050919050565b828183375f83830152505050565b5f611c94611c8f84611c44565b611c2a565b905082815260208101848484011115611cb057611caf611bc8565b5b611cbb848285611c74565b509392505050565b5f82601f830112611cd757611cd6611bc4565b5b8135611ce7848260208601611c82565b91505092915050565b5f805f60608486031215611d0757611d066117fc565b5b5f611d1486828701611823565b9350506020611d2586828701611bb0565b925050604084013567ffffffffffffffff811115611d4657611d45611800565b5b611d5286828701611cc3565b9150509250925092565b611d6581611890565b8114611d6f575f80fd5b50565b5f81359050611d8081611d5c565b92915050565b5f805f805f60a08688031215611d9f57611d9e6117fc565b5b5f611dac88828901611d72565b9550506020611dbd88828901611d72565b945050604086013567ffffffffffffffff811115611dde57611ddd611800565b5b611dea88828901611cc3565b9350506060611dfb88828901611823565b925050608086013567ffffffffffffffff811115611e1c57611e1b611800565b5b611e2888828901611cc3565b9150509295509295909350565b5f61012082019050611e495f83018c611862565b611e56602083018b6118a1565b8181036040830152611e68818a611a0a565b9050611e776060830189611862565b611e846080830188611862565b81810360a0830152611e968187611a0a565b905081810360c0830152611eaa8186611a0a565b9050611eb960e0830185611862565b611ec7610100830184611862565b9a9950505050505050505050565b5f8060408385031215611eeb57611eea6117fc565b5b5f611ef885828601611823565b9250506020611f0985828601611bb0565b9150509250929050565b5f602082019050611f265f8301846118a1565b92915050565b5f805f805f8060c08789031215611f4657611f456117fc565b5b5f611f5389828a01611d72565b965050602087013567ffffffffffffffff811115611f7457611f73611800565b5b611f8089828a01611cc3565b9550506040611f9189828a01611823565b9450506060611fa289828a01611823565b935050608087013567ffffffffffffffff811115611fc357611fc2611800565b5b611fcf89828a01611cc3565b92505060a0611fe089828a01611823565b9150509295509295509295565b5f805f60608486031215612004576120036117fc565b5b5f61201186828701611d72565b935050602061202286828701611d72565b925050604061203386828701611823565b9150509250925092565b5f805f805f60a08688031215612056576120556117fc565b5b5f86013567ffffffffffffffff81111561207357612072611800565b5b61207f88828901611cc3565b955050602061209088828901611823565b94505060406120a188828901611823565b93505060606120b288828901611d72565b92505060806120c388828901611d72565b9150509295509295909350565b7f53746f636b207265717565737420646f6573206e6f74206578697374000000005f82015250565b5f612104601c836119c2565b915061210f826120d0565b602082019050919050565b5f6020820190508181035f830152612131816120f8565b9050919050565b7f4e487b71000000000000000000000000000000000000000000000000000000005f52602260045260245ffd5b5f600282049050600182168061217c57607f821691505b60208210810361218f5761218e612138565b5b50919050565b7f526174696f6e2073746f636b207265717565737420646f6573206e6f742065785f8201527f6973740000000000000000000000000000000000000000000000000000000000602082015250565b5f6121ef6023836119c2565b91506121fa82612195565b604082019050919050565b5f6020820190508181035f83015261221c816121e3565b9050919050565b5f819050815f5260205f209050919050565b5f6020601f8301049050919050565b5f82821b905092915050565b5f6008830261227f7fffffffffffffffffffffffffffffffffffffffffffffffffffffffffffffffff82612244565b6122898683612244565b95508019841693508086168417925050509392505050565b5f819050919050565b5f6122c46122bf6122ba84611804565b6122a1565b611804565b9050919050565b5f819050919050565b6122dd836122aa565b6122f16122e9826122cb565b848454612250565b825550505050565b5f90565b6123056122f9565b6123108184846122d4565b505050565b5b81811015612333576123285f826122fd565b600181019050612316565b5050565b601f8211156123785761234981612223565b61235284612235565b81016020851015612361578190505b61237561236d85612235565b830182612315565b50505b505050565b5f82821c905092915050565b5f6123985f198460080261237d565b1980831691505092915050565b5f6123b08383612389565b9150826002028217905092915050565b6123c9826119b8565b67ffffffffffffffff8111156123e2576123e1611bcc565b5b6123ec8254612165565b6123f7828285612337565b5f60209050601f831160018114612428575f8415612416578287015190505b61242085826123a5565b865550612487565b601f19841661243686612223565b5f5b8281101561245d57848901518255600182019150602085019450602081019050612438565b8683101561247a5784890151612476601f891682612389565b8355505b6001600288020188555050505b505050505050565b5f6020820190506124a25f830184611914565b92915050565b7f53746f636b20646f6573206e6f742065786973740000000000000000000000005f82015250565b5f6124dc6014836119c2565b91506124e7826124a8565b602082019050919050565b5f6020820190508181035f830152612509816124d0565b9050919050565b7f4e487b71000000000000000000000000000000000000000000000000000000005f52601160045260245ffd5b5f61254782611804565b91507fffffffffffffffffffffffffffffffffffffffffffffffffffffffffffffffff820361257957612578612510565b5b600182019050919050565b5f6020820190508181035f83015261259c8184611a0a565b905092915050565b5f6040820190508181035f8301526125bc8185611a0a565b90506125cb6020830184611862565b939250505056fea2646970667358221220d5513e7f39c883244442c37ae264422d1a5b3e16f136c7564bde7570cdb227e664736f6c63430008150033",
  "immutableReferences": {},
  "source": "// SPDX-License-Identifier: MIT\npragma solidity ^0.8.0;\n\n/**\n * @title AratroCrop\n * @dev Smart contract for tracking agricultural stock transactions in the Aratro app\n */\ncontract AratroCrop {\n    // Enum for stock status\n    enum StockStatus { Pending, Stored, Rejected, Transferred }\n    \n    // Struct for Stock\n    struct Stock {\n        uint256 id;\n        string cropType;\n        uint256 quantity; // in kg (converted from tons)\n        uint256 requestedQuantity; // Original requested quantity\n        StockStatus status;\n        address farmer;\n        address warehouse;\n        uint256 timestamp;\n        uint256 updatedAt;\n    }\n    \n    // Struct for StockRequest\n    struct StockRequest {\n        uint256 id;\n        address from; // Farmer's address\n        address to;   // Warehouse's address\n        uint256 stockId;\n        uint256 requestDate;\n        StockStatus status;\n        uint256 createdAt;\n        uint256 updatedAt;\n    }\n    \n    // Struct for WarehouseRequest\n    struct WarehouseRequest {\n        uint256 id;\n        address warehouse;\n        string stockType;\n        uint256 quantity;\n        uint256 pricePerTon;\n        string description;\n        string status; // \"open\", \"closed\", etc.\n        uint256 datePosted;\n        uint256 expiryDate;\n    }\n    \n    // Struct for RationStockRequest\n    struct RationStockRequest {\n        uint256 id;\n        address rationShop;\n        address warehouse;\n        string stockType;\n        uint256 quantity;\n        StockStatus status;\n        uint256 requestDate;\n        uint256 processedDate;\n        string notes;\n        string adminNotes;\n        uint256 createdAt;\n        uint256 updatedAt;\n    }\n    \n    // Mapping from stock ID to Stock\n    mapping(uint256 => Stock) public stocks;\n    \n    // Mapping from request ID to StockRequest\n    mapping(uint256 => StockRequest) public stockRequests;\n    \n    // Mapping from request ID to WarehouseRequest\n    mapping(uint256 => WarehouseRequest) public warehouseRequests;\n    \n    // Mapping from request ID to RationStockRequest\n    mapping(uint256 => RationStockRequest) public rationStockRequests;\n    \n    // Counter for stock IDs\n    uint256 private stockIdCounter;\n    \n    // Counter for stock request IDs\n    uint256 private stockRequestIdCounter;\n    \n    // Counter for warehouse request IDs\n    uint256 private warehouseRequestIdCounter;\n    \n    // Counter for ration stock request IDs\n    uint256 private rationStockRequestIdCounter;\n\n    // Contract owner\n    address public owner;\n\n    // Constructor to initialize counters and set owner\n    constructor() {\n        require(msg.sender != address(0), \"Invalid deployer address\");\n        owner = msg.sender;\n        stockIdCounter = 0;\n        stockRequestIdCounter = 0;\n        warehouseRequestIdCounter = 0;\n        rationStockRequestIdCounter = 0;\n    }\n    \n    // Events\n    event StockCreated(uint256 indexed id, string cropType, uint256 quantity, address indexed farmer, address indexed warehouse);\n    event StockStatusUpdated(uint256 indexed id, StockStatus status);\n    event StockRequestCreated(uint256 indexed id, address indexed from, address indexed to, uint256 stockId);\n    event StockRequestStatusUpdated(uint256 indexed id, StockStatus status);\n    event WarehouseRequestCreated(uint256 indexed id, address indexed warehouse, string stockType, uint256 quantity);\n    event RationStockRequestCreated(uint256 indexed id, address indexed rationShop, address indexed warehouse, string stockType);\n    event RationStockRequestStatusUpdated(uint256 indexed id, StockStatus status);\n    \n    /**\n     * @dev Create a new stock entry\n     * @param _cropType Type of crop\n     * @param _quantity Quantity in kg\n     * @param _requestedQuantity Original requested quantity\n     * @param _farmer Farmer's address\n     * @param _warehouse Warehouse's address\n     * @return ID of the created stock\n     */\n    function createStock(\n        string memory _cropType,\n        uint256 _quantity,\n        uint256 _requestedQuantity,\n        address _farmer,\n        address _warehouse\n    ) public returns (uint256) {\n        stockIdCounter++;\n        uint256 stockId = stockIdCounter;\n        \n        stocks[stockId] = Stock({\n            id: stockId,\n            cropType: _cropType,\n            quantity: _quantity,\n            requestedQuantity: _requestedQuantity,\n            status: StockStatus.Pending,\n            farmer: _farmer,\n            warehouse: _warehouse,\n            timestamp: block.timestamp,\n            updatedAt: block.timestamp\n        });\n        \n        emit StockCreated(stockId, _cropType, _quantity, _farmer, _warehouse);\n        \n        return stockId;\n    }\n    \n    /**\n     * @dev Update the status of a stock\n     * @param _stockId ID of the stock\n     * @param _status New status\n     */\n    function updateStockStatus(uint256 _stockId, StockStatus _status) public {\n        require(_stockId <= stockIdCounter, \"Stock does not exist\");\n        \n        Stock storage stock = stocks[_stockId];\n        stock.status = _status;\n        stock.updatedAt = block.timestamp;\n        \n        emit StockStatusUpdated(_stockId, _status);\n    }\n    \n    /**\n     * @dev Create a new stock request\n     * @param _from Farmer's address\n     * @param _to Warehouse's address\n     * @param _stockId ID of the stock\n     * @return ID of the created request\n     */\n    function createStockRequest(\n        address _from,\n        address _to,\n        uint256 _stockId\n    ) public returns (uint256) {\n        require(_stockId <= stockIdCounter, \"Stock does not exist\");\n        \n        stockRequestIdCounter++;\n        uint256 requestId = stockRequestIdCounter;\n        \n        stockRequests[requestId] = StockRequest({\n            id: requestId,\n            from: _from,\n            to: _to,\n            stockId: _stockId,\n            requestDate: block.timestamp,\n            status: StockStatus.Pending,\n            createdAt: block.timestamp,\n            updatedAt: block.timestamp\n        });\n        \n        emit StockRequestCreated(requestId, _from, _to, _stockId);\n        \n        return requestId;\n    }\n    \n    /**\n     * @dev Update the status of a stock request\n     * @param _requestId ID of the request\n     * @param _status New status\n     */\n    function updateStockRequestStatus(uint256 _requestId, StockStatus _status) public {\n        require(_requestId <= stockRequestIdCounter, \"Stock request does not exist\");\n        \n        StockRequest storage request = stockRequests[_requestId];\n        request.status = _status;\n        request.updatedAt = block.timestamp;\n        \n        emit StockRequestStatusUpdated(_requestId, _status);\n        \n        // Also update the associated stock status\n        updateStockStatus(request.stockId, _status);\n    }\n    \n    /**\n     * @dev Create a new warehouse request\n     * @param _warehouse Warehouse's address\n     * @param _stockType Type of stock\n     * @param _quantity Quantity in kg\n     * @param _pricePerTon Price per ton\n     * @param _description Description\n     * @param _expiryDate Expiry date (timestamp)\n     * @return ID of the created request\n     */\n    function createWarehouseRequest(\n        address _warehouse,\n        string memory _stockType,\n        uint256 _quantity,\n        uint256 _pricePerTon,\n        string memory _description,\n        uint256 _expiryDate\n    ) public returns (uint256) {\n        warehouseRequestIdCounter++;\n        uint256 requestId = warehouseRequestIdCounter;\n        \n        warehouseRequests[requestId] = WarehouseRequest({\n            id: requestId,\n            warehouse: _warehouse,\n            stockType: _stockType,\n            quantity: _quantity,\n            pricePerTon: _pricePerTon,\n            description: _description,\n            status: \"open\",\n            datePosted: block.timestamp,\n            expiryDate: _expiryDate\n        });\n        \n        emit WarehouseRequestCreated(requestId, _warehouse, _stockType, _quantity);\n        \n        return requestId;\n    }\n    \n    /**\n     * @dev Create a new ration stock request\n     * @param _rationShop Ration shop's address\n     * @param _warehouse Warehouse's address\n     * @param _stockType Type of stock\n     * @param _quantity Quantity in kg\n     * @param _notes Notes\n     * @return ID of the created request\n     */\n    function createRationStockRequest(\n        address _rationShop,\n        address _warehouse,\n        string memory _stockType,\n        uint256 _quantity,\n        string memory _notes\n    ) public returns (uint256) {\n        rationStockRequestIdCounter++;\n        uint256 requestId = rationStockRequestIdCounter;\n        \n        rationStockRequests[requestId] = RationStockRequest({\n            id: requestId,\n            rationShop: _rationShop,\n            warehouse: _warehouse,\n            stockType: _stockType,\n            quantity: _quantity,\n            status: StockStatus.Pending,\n            requestDate: block.timestamp,\n            processedDate: 0,\n            notes: _notes,\n            adminNotes: \"\",\n            createdAt: block.timestamp,\n            updatedAt: block.timestamp\n        });\n        \n        emit RationStockRequestCreated(requestId, _rationShop, _warehouse, _stockType);\n        \n        return requestId;\n    }\n    \n    /**\n     * @dev Update the status of a ration stock request\n     * @param _requestId ID of the request\n     * @param _status New status\n     * @param _adminNotes Admin notes\n     */\n    function updateRationStockRequestStatus(\n        uint256 _requestId,\n        StockStatus _status,\n        string memory _adminNotes\n    ) public {\n        require(_requestId <= rationStockRequestIdCounter, \"Ration stock request does not exist\");\n        \n        RationStockRequest storage request = rationStockRequests[_requestId];\n        request.status = _status;\n        request.adminNotes = _adminNotes;\n        request.processedDate = block.timestamp;\n        request.updatedAt = block.timestamp;\n        \n        emit RationStockRequestStatusUpdated(_requestId, _status);\n    }\n    \n    /**\n    * @dev Get stock details\n    * @param _stockId ID of the stock\n    * @return id Stock ID\n    * @return cropType Type of crop\n    * @return quantity Quantity in kg\n    * @return requestedQuantity Original requested quantity\n    * @return status Status of the stock\n    * @return farmer Farmer's address\n    * @return warehouse Warehouse's address\n    * @return timestamp Creation timestamp\n    * @return updatedAt Last update timestamp\n    */\n    function getStock(uint256 _stockId) public view returns (\n        uint256 id,\n        string memory cropType,\n        uint256 quantity,\n        uint256 requestedQuantity,\n        StockStatus status,\n        address farmer,\n        address warehouse,\n        uint256 timestamp,\n        uint256 updatedAt\n    ) {\n        require(_stockId <= stockIdCounter, \"Stock does not exist\");\n        \n        Stock storage stock = stocks[_stockId];\n        \n        return (\n            stock.id,\n            stock.cropType,\n            stock.quantity,\n            stock.requestedQuantity,\n            stock.status,\n            stock.farmer,\n            stock.warehouse,\n            stock.timestamp,\n            stock.updatedAt\n        );\n    }\n    \n    /**\n    * @dev Get stock request details\n    * @param _requestId ID of the request\n    * @return id Request ID\n    * @return from Farmer's address\n    * @return to Warehouse's address\n    * @return stockId ID of the stock\n    * @return requestDate Request date\n    * @return status Status of the request\n    * @return createdAt Creation timestamp\n    * @return updatedAt Last update timestamp\n    */\n    function getStockRequest(uint256 _requestId) public view returns (\n        uint256 id,\n        address from,\n        address to,\n        uint256 stockId,\n        uint256 requestDate,\n        StockStatus status,\n        uint256 createdAt,\n        uint256 updatedAt\n    ) {\n        require(_requestId <= stockRequestIdCounter, \"Stock request does not exist\");\n        \n        StockRequest storage request = stockRequests[_requestId];\n        \n        return (\n            request.id,\n            request.from,\n            request.to,\n            request.stockId,\n            request.requestDate,\n            request.status,\n            request.createdAt,\n            request.updatedAt\n        );\n    }\n    \n    /**\n     * @dev Get the total number of stocks\n     * @return Total number of stocks\n     */\n    function getTotalStocks() public view returns (uint256) {\n        return stockIdCounter;\n    }\n    \n    /**\n     * @dev Get the total number of stock requests\n     * @return Total number of stock requests\n     */\n    function getTotalStockRequests() public view returns (uint256) {\n        return stockRequestIdCounter;\n    }\n    \n    /**\n     * @dev Get the total number of warehouse requests\n     * @return Total number of warehouse requests\n     */\n    function getTotalWarehouseRequests() public view returns (uint256) {\n        return warehouseRequestIdCounter;\n    }\n    \n    /**\n     * @dev Get the total number of ration stock requests\n     * @return Total number of ration stock requests\n     */\n    function getTotalRationStockRequests() public view returns (uint256) {\n        return rationStockRequestIdCounter;\n    }\n} ",
  "sourcePath": "/home/nathan/proj/aratro/contracts/contracts/AratroCrop.sol",
  "compiler": {
    "name": "solc",
    "version": "0.8.21+commit.d9974bed.Emscripten.clang"
  },
  "schemaVersion": "3.4.16",
  "updatedAt": "2025-03-11T06:04:33.327Z",
  "devdoc": {
    "details": "Smart contract for tracking agricultural stock transactions in the Aratro app",
    "kind": "dev",
    "methods": {
      "createRationStockRequest(address,address,string,uint256,string)": {
        "details": "Create a new ration stock request",
        "params": {
          "_notes": "Notes",
          "_quantity": "Quantity in kg",
          "_rationShop": "Ration shop's address",
          "_stockType": "Type of stock",
          "_warehouse": "Warehouse's address"
        },
        "returns": {
          "_0": "ID of the created request"
        }
      },
      "createStock(string,uint256,uint256,address,address)": {
        "details": "Create a new stock entry",
        "params": {
          "_cropType": "Type of crop",
          "_farmer": "Farmer's address",
          "_quantity": "Quantity in kg",
          "_requestedQuantity": "Original requested quantity",
          "_warehouse": "Warehouse's address"
        },
        "returns": {
          "_0": "ID of the created stock"
        }
      },
      "createStockRequest(address,address,uint256)": {
        "details": "Create a new stock request",
        "params": {
          "_from": "Farmer's address",
          "_stockId": "ID of the stock",
          "_to": "Warehouse's address"
        },
        "returns": {
          "_0": "ID of the created request"
        }
      },
      "createWarehouseRequest(address,string,uint256,uint256,string,uint256)": {
        "details": "Create a new warehouse request",
        "params": {
          "_description": "Description",
          "_expiryDate": "Expiry date (timestamp)",
          "_pricePerTon": "Price per ton",
          "_quantity": "Quantity in kg",
          "_stockType": "Type of stock",
          "_warehouse": "Warehouse's address"
        },
        "returns": {
          "_0": "ID of the created request"
        }
      },
      "getStock(uint256)": {
        "details": "Get stock details",
        "params": {
          "_stockId": "ID of the stock"
        },
        "returns": {
          "cropType": "Type of crop",
          "farmer": "Farmer's address",
          "id": "Stock ID",
          "quantity": "Quantity in kg",
          "requestedQuantity": "Original requested quantity",
          "status": "Status of the stock",
          "timestamp": "Creation timestamp",
          "updatedAt": "Last update timestamp",
          "warehouse": "Warehouse's address"
        }
      },
      "getStockRequest(uint256)": {
        "details": "Get stock request details",
        "params": {
          "_requestId": "ID of the request"
        },
        "returns": {
          "createdAt": "Creation timestamp",
          "from": "Farmer's address",
          "id": "Request ID",
          "requestDate": "Request date",
          "status": "Status of the request",
          "stockId": "ID of the stock",
          "to": "Warehouse's address",
          "updatedAt": "Last update timestamp"
        }
      },
      "getTotalRationStockRequests()": {
        "details": "Get the total number of ration stock requests",
        "returns": {
          "_0": "Total number of ration stock requests"
        }
      },
      "getTotalStockRequests()": {
        "details": "Get the total number of stock requests",
        "returns": {
          "_0": "Total number of stock requests"
        }
      },
      "getTotalStocks()": {
        "details": "Get the total number of stocks",
        "returns": {
          "_0": "Total number of stocks"
        }
      },
      "getTotalWarehouseRequests()": {
        "details": "Get the total number of warehouse requests",
        "returns": {
          "_0": "Total number of warehouse requests"
        }
      },
      "updateRationStockRequestStatus(uint256,uint8,string)": {
        "details": "Update the status of a ration stock request",
        "params": {
          "_adminNotes": "Admin notes",
          "_requestId": "ID of the request",
          "_status": "New status"
        }
      },
      "updateStockRequestStatus(uint256,uint8)": {
        "details": "Update the status of a stock request",
        "params": {
          "_requestId": "ID of the request",
          "_status": "New status"
        }
      },
      "updateStockStatus(uint256,uint8)": {
        "details": "Update the status of a stock",
        "params": {
          "_status": "New status",
          "_stockId": "ID of the stock"
        }
      }
    },
    "title": "AratroCrop",
    "version": 1
  },
  "userdoc": {
    "kind": "user",
    "methods": {},
    "version": 1
  }
}